:020000040800F2
:10000000783B002005010008C11F000863140008A8
:10001000BD1F0008DD0D0008574200080000000069
:10002000000000000000000000000000793B000814
:100030009D0F000800000000093A00081D0100089B
:100040001F0100081F0100081F0100081F01000810
:100050001F0100081F0100081F0100081F01000800
:100060001F0100081F0100081F0100081F010008F0
:100070001F0100081F0100081F0100081F010008E0
:100080001F0100081F0100081F0100081F010008D0
:100090001F0100081F0100081F0100081F010008C0
:1000A0001F0100081F0100081F0100081F010008B0
:1000B0001F010008ED3C00081F0100081F01000897
:1000C0001F0100081F0100081F0100081F01000890
:1000D0001F010008ED3E0008853F00081F010008D1
:1000E0001F0100081F0100081F010008DFF810D0E1
:1000F00000F0D8FB004800472D500008AFF3008007
:10010000783B00200648804706480047FEE7FEE7A8
:10011000FEE7FEE7FEE7FEE7FEE7FEE7FEE7FEE7B7
:100120008D3C0008ED00000840EA01039B0703D066
:1001300009E008C9121F08C0042AFAD203E011F826
:10014000013B00F8013B521EF9D27047D2B201E0E8
:1001500000F8012B491EFBD270470022F6E710B5CC
:1001600013460A4604461946FFF7F0FF204610BD25
:10017000421E12F8013F002BFBD111F8013B02F89F
:10018000013B002BF9D1704730B505462A460B4696
:1001900012F8010B13F8014B08B1A042F8D01CB1C2
:1001A000002802D06D1CF1E7284630BDCAB2401EBF
:1001B00010F8011F8A4202D00029F9D100207047AF
:1001C000421C10F8011B0029FBD1801A704710B5A2
:1001D000044600E0401C0378002BFBD100E0401CEB
:1001E000521E04D311F8013B0370002BF7D10021FC
:1001F0000170204610BD034611F8012B00F8012BB9
:10020000002AF9D11846704770B5064604F0C6F8C2
:10021000046805460A220021304600F01CF92C60D3
:1002200070BD80EA010210B502F00043400022D008
:100230004A001FD0010E01EB1261C0F35600C2F359
:10024000560240F4000042F40002A0FB0220000429
:100250007F39140400D0401C50EA124001D4400001
:10026000491EC2B20C0604EBD010401C4008802A84
:1002700002D003E0002010BD20F00100002900DAC8
:100280000020184310BD30B480EA010202F000459E
:1002900030F0004221F0004013D090B1C30DD40DD6
:1002A000C2F31601C0F31600E41A41F4000140F451
:1002B00000027D34914201D3641C00E04900002C0F
:1002C00002DA30BC002070474FF400000023914256
:1002D00001D3891A034340084FEA4101F7D151B1D4
:1002E000914202D14FF0004105E002D24FF00101EE
:1002F00001E06FF0010103EBC450284430BC00F072
:10030000E2B8C10F80EAE0700844CA0796230021D2
:1003100000F0E2B896230022114600F0DDB800F0AC
:10032000004220F00040C10DC0F3160040F4000070
:100330007F2901DA00207047962903DCC1F196017C
:10034000C84001E096398840002AF4D04042704706
:1003500020F00040C10DC0F3160040F400007F29DA
:1003600001DA00207047962903DCC1F19601C840EC
:10037000704796398840704700F0004230F00040E6
:100380000AD0C10D01F56071C0F3160042EA0151B7
:10039000C208400711437047002001467047000023
:1003A000002801DBC0F10040002901DBC1F1004160
:1003B00081427047002801DBC0F10040002901DBC9
:1003C000C1F100418842704730B50B46014600201C
:1003D0002022012409E021FA02F59D4205D303FA07
:1003E00002F5491B04FA02F52844151EA2F1010288
:1003F000F1DC30BD2DE9F05F0546002092469B46BA
:1004000088460646814640241BE02846414647462A
:10041000224600F068FA53465A46C01A914110D35A
:1004200011461846224600F04FFA2D1A67EB0108D4
:100430004F4622460120002100F046FA17EB000942
:100440004E41201EA4F10104DFDC484631462A4615
:100450004346BDE8F09F2DE9F04791460F468046A0
:100460000446002614F8015B2DB100F05FFA006825
:10047000405DC007F6D12B2D02D02D2D18D0641E63
:100480004A463946204600F055FA27B13968A1425C
:1004900001D1C7F8008071054FF002040BD540422E
:1004A000002803DD03F07AFF0460A007BDE8F087B1
:1004B00046F48066E4E70028F8DA03F06FFF046092
:1004C0006FF00040F2E70029A8BF7047401C4900C8
:1004D00008BF20F00100704710B4B0FA80FC00FAA9
:1004E0000CF050EA010404BF10BC704749B1CCF1D4
:1004F000200421FA04F411FA0CF118BF0121214360
:100500000843A3EB0C01CB1D4FEA00614FEA10201A
:1005100042BF002010BC704700EBC35010440029BC
:10052000A4BF10BC7047401C490008BF20F0010068
:1005300010BC70472DE9FE4F804681EA0300C00FD2
:100540000C46009021F0004123F00045B8EB02007A
:10055000A94105D24046214690461C460B4602461C
:1005600023F00040104347D0270DC7F30A00C3F320
:100570000A510290401A019040286BDAC3F313002D
:1005800040F4801B0098924620B10023D2EB030A6E
:1005900063EB0B0B01985946C0F14002504600F046
:1005A00093F906460D4650465946019A00F0ABF9BC
:1005B00010EB08006141002487EA115284EAE773D6
:1005C0001A4340D0009A62B3019A012A4FEA0752B7
:1005D00015DC001B61EB02014FF0004202EA0752FA
:1005E000CDE90042001C41F5801132462B4600F057
:1005F000FFF903B0BDE8F08F40462146F9E7001B44
:1006000061EB0201001C41F5801300185B412018CA
:10061000A2F5001747EB030140EAD570B6196D410A
:1006200011E06D084FEA360645EAC0754FEA0752F9
:10063000001B61EB0201001C41F5801149084FEAE3
:1006400030000019514132462B4603B0BDE8F04F4F
:1006500000F0BFB90098012240000023D0EB020255
:1006600063EBE073009821464FEAE074B8EB0000BA
:1006700061EB0401E9E783F000435BE781F00041AF
:1006800058E72DE9FE4F81EA030404F0004421F00D
:10069000004100944FF0000B23F0004350EA0104A6
:1006A0005ED052EA03045BD0C3F30A54C1F30A5587
:1006B0002C44A4F2F3340194A0FB0254C1F31301BF
:1006C00041F48011C3F3130343F4801301FB02448C
:1006D00000FB034E840A970A44EA815447EA835791
:1006E000A4FB076802958D0A05FB07854FEA932C4A
:1006F00004FB0C542705029D4FEA065847EA1637BB
:10070000B5EB08056EEB070C870E920E47EA8117D2
:1007100042EA8312A7FB0201B6EB0B0164EB000473
:100720002B0D43EA0C335E1844EB1C50DA4651465D
:10073000E7FB0201C5F313044FEA0B3343EA1453FA
:100740004FEA0432019C43EA0603A4F10C0402942C
:10075000009CCDE900B400F04BF903B0BDE8F08F88
:1007600000200146F9E72DE9F04D81EA030404F089
:10077000004B21F0004514464FF0000A23F00041E1
:1007800050EA050220D054EA01021DD0C5F30A57F1
:100790000246C5F31303C1F31300C1F30A5640F434
:1007A000801543F48013A7EB0608101BD64608F209
:1007B000FD3873EB050002D308F1010801E092183F
:1007C0005B41B8F1000F03DA00200146BDE8F08D6F
:1007D00000204FF48011064684460EE0171B73EB91
:1007E000050705D3121B63EB050306434CEA010C16
:1007F00049084FEA300092185B4150EA0107EDD1F9
:1008000052EA030012D082EA040083EA0501084399
:1008100005D0101BAB4106D20122002306E00022C6
:100820004FF0004302E06FF0010253101AEB060094
:100830004CEB085110EB0A0041EB0B01BDE8F04D09
:1008400000F0C7B8C1F30A52C1F3130140F2FF33FD
:1008500041F480119A4202DA00200146704740F2CA
:1008600033439A42A2F2334202DC524200F03BB8D8
:1008700000F02AB830B5041E71F1000404DB4FF01B
:100880000044404264EB0101141E73F1000405DBD7
:100890001C464FF00043524263EB0403994208BFE9
:1008A000904230BD064C074D06E0E06840F0010381
:1008B00094E8070098471034AC42F6D3FFF71AFCCF
:1008C00004A0000824A00008202A04DB203A00FA33
:1008D00002F1002070479140C2F1200320FA03F397
:1008E000194390407047202A04DB203A21FA02F095
:1008F0000021704721FA02F3D040C2F1200291405A
:10090000084319467047202A06DBCB17203A41FAE4
:1009100002F043EAE07306E041FA02F3D040C2F18C
:100920002002914008431946704700000048704774
:1009300000A000082DE9F05F8246007800271546E8
:100940008B460AF10104B946302801D09DB113E06D
:1009500014F8010B0127782803D0582801D045B19D
:100960000AE00DB1102D07D10027102514F8010B56
:1009700002E0082500E00A250026B0460EE005FB4F
:10098000080005FB06F1012701EB10461FFA80F86D
:10099000B6F5803F00D3B94614F8010B294600F0A4
:1009A00075F80028EBDABBF1000F05D00FB1641E1B
:1009B00000E05446CBF80040B9F1000F06D003F038
:1009C000EDFC02210160C81EBDE8F09F48EA064028
:1009D000FAE710B5141E73F1000408DA401C41F167
:1009E000000192185B411A4301D120F0010010BDB3
:1009F0002DE9F04D92469B4611B1B1FA81F202E029
:100A0000B0FA80F220329046FFF75EFF04460F46B0
:100A100040EA0A0041EA0B0153465A46084313D004
:100A2000114653EA010019D0C8F140025046FFF7C1
:100A30005AFF05460E46504659464246FFF744FFC8
:100A4000084305D0012004E020463946BDE8F08D7A
:100A50000020054346EAE0762C4337430A986305B5
:100A6000E40AA0EB08000022FD0A44EA47540A30D9
:100A700002D500200146E9E7010510196941DDE9C9
:100A8000084500196941BDE8F04DA2E73A2800D2B7
:100A9000303820F02002412A01D3A2F137008842E9
:100AA00001D34FF0FF30704770B58C1810F8015B20
:100AB00015F0070301D110F8013B2A1106D110F8F7
:100AC000012B03E010F8016B01F8016B5B1EF9D1FB
:100AD0002B0705D40023521E0DD401F8013BFAE781
:100AE00010F8013BCB1A921C03E013F8015B01F8EC
:100AF000015B521EF9D5A142D8D3002070BD21B1AF
:100B0000826842F00102826003E0826822F0010202
:100B10008260704721B1826842F48072826003E093
:100B2000826822F4807282607047014600208A68E1
:100B300002F004020AB1012000E0002070470146E3
:100B400000208A6802F008020AB1012000E00020BB
:100B50007047000030B502460020002350680F4C5B
:100B600020400D790C6844EA0524204350609068C9
:100B70000B4C2040D1E902542C434D7944EA450402
:100B800020439060D06A20F470000C7C641EE4B2B4
:100B9000234340EA0350D06230BD0000FFFEF0FF67
:100BA000FDF7F1FFF0B504460D4600200021092DA8
:100BB00011DDE068A5F10A0606EB4607072606FAEE
:100BC00007F18843A5F10A0606EB460603FA06F18B
:100BD0000843E0600CE0206905EB4507072606FAAC
:100BE00007F1884305EB450603FA06F10843206147
:100BF000072A0FDA606B561E06EB86071F2606FAD9
:100C000007F18843561E06EB860605FA06F10843EF
:100C1000606322E00D2A0FDA206BD61F06EB8607F1
:100C20001F2606FA07F18843D61F06EB860605FA4B
:100C300006F10843206310E0E06AA2F10D0606EB1E
:100C400086071F2606FA07F18843A2F10D0606EB78
:100C5000860605FA06F10843E062F0BD816841F0BE
:100C600008018160704721B1826842F4A00282606D
:100C700003E0826822F4A00282607047816841F03C
:100C8000040181607047000008B50121042002F0D2
:100C9000F9FE0121082002F0F5FE3020ADF8000039
:100CA00000208DF803006946054800F03DFB402018
:100CB000ADF800006946024800F036FB08BD0000B0
:100CC0000008014010B5FFF7DFFF00F001F810BD8C
:100CD00000B591B00121084602F0A4FE01214802AE
:100CE00002F0D0FE3A4800F095F83A4806903A48AB
:100CF0000790002008901E20099000200A90802074
:100D00000B9040000C9080000D9020200E9000026F
:100D10000F900020109006A92D4800F021F9012124
:100D20002B4800F06BF80020019001208DF808009E
:100D30008DF809004FF460200390002004900320F8
:100D40008DF8140001A923484C38FFF703FF4FF436
:100D5000404002F05BFE0523012204211D484C386F
:100D6000FFF720FF0523022219461A484C38FFF7E7
:100D700019FF05230322062116484C38FFF712FFFE
:100D8000012114484C38FFF7C5FE012111484C38A9
:100D9000FFF7B5FE0F484C38FFF760FF00BF0D4866
:100DA0004C38FFF7CCFE0028F9D10A484C38FFF741
:100DB00065FF00BF07484C38FFF7B7FE0028F9D1A0
:100DC000012104484C38FFF74EFF11B000BD000070
:100DD000080002404C240140140C002000BFFEE734
:100DE00010B5C8210348FFF7B8F900200249088070
:100DF00010BD0000CD1C0020A600002021B102681B
:100E000042F00102026004E002684FF6FE731A40ED
:100E10000260704701684FF6FE72114001600021C8
:100E2000016041608160C1604B49884208D14A49F4
:100E30000839496841F00F01474A083A51608AE091
:100E400045491431884208D143490839496841F07D
:100E5000F001414A083A51607DE03F49283188421B
:100E600008D13D490839496841F470613A4A083A65
:100E7000516070E038493C31884208D13649083920
:100E8000496841F47041344A083A516063E032499C
:100E90005031884208D130490839496841F47021FD
:100EA0002D4A083A516056E02B496431884208D1F6
:100EB00029490839496841F47001274A083A5160C4
:100EC00049E025497831884208D1234908394968E1
:100ED00041F07061204A083A51603CE01F49884265
:100EE00006D1011F096841F00F01021F116032E0B5
:100EF0001A491431884208D11849091F096841F07C
:100F0000F001164A121F116025E014492831884269
:100F100008D11249091F096841F470610F4A121F74
:100F2000116018E00D493C31884208D10B49091F76
:100F3000096841F47041094A121F11600BE007492A
:100F40005031884207D10549091F096841F47021D1
:100F5000024A121F11607047080002400804024054
:100F600010B50022026847F6F0739A430C6A8B684A
:100F700023430C6923434C6923438C692343CC6985
:100F800023434C6A23438C6A23431A430260CB6891
:100F900043600B6883604B68C36010BD70470000FE
:100FA00010B580210348FFF7D8F8002002490880D7
:100FB00010BD0000951D0020C200002070B5054640
:100FC000002400BF00F096F980B90DA10E48FFF78C
:100FD000DBF8044654B13A212046FFF7E7F804460F
:100FE00014B1641C204670BD0020FCE7052003F00E
:100FF00055FE281EA5F101018DB2E3D100BFF2E735
:101000004950442C00000000951D002008B5012126
:10101000082002F037FD10208DF803000220ADF803
:10102000000003208DF802006946674800F07CF953
:1010300000220221644800F00FFAFA2003F02EFE8D
:1010400001220221604800F007FA4FF4FA7003F021
:1010500025FEFFF7A5FF02235CA20121232001F05A
:10106000B1F807220321212001F082F80822032190
:10107000312001F07DF809220321412001F078F8A8
:101080000A220321512001F073F800205149086021
:1010900009E050480178062001F00AF94D4800683F
:1010A000401C4C4908604B4800680A28F1DB03E00B
:1010B0004FF4FA7003F0F2FDC82247A147A000F0F8
:1010C000CFF80028F4D103E04FF4FA7003F0E6FD06
:1010D000C82241A143A000F0C3F80028F4D10A209F
:1010E0003C49086009E03B480178062001F0E0F83F
:1010F00038480068401C37490860364800681428A2
:10110000F1DB03E04FF4FA7003F0C8FDC82232A10E
:1011100038A000F0A5F80028F4D103E04FF4FA70ED
:1011200003F0BCFDC82237A138A000F099F80028D0
:10113000F4D114202749086009E0264801780620E8
:1011400001F0B6F823480068401C22490860214895
:1011500000681E28F1DB03E04FF4FA7003F09EFDF7
:10116000C82232A133A000F07BF80028F4D11E2061
:101170001849086009E017480178062001F098F83E
:1011800014480068401C134908601248006833285E
:10119000F1DB07220321182000F0EAFF08220321D7
:1011A000282000F0E5FF09220321382000F0E0FFAD
:1011B0000B220321482000F0DBFF0C2203215820E2
:1011C00000F0D6FF08BD0000000C01404553503828
:1011D000323636003A0000204F4B000041540D0AD1
:1011E0000D00000041542B43574D4F44453D310DF8
:1011F0000A00000041542B4357444843503D312CD2
:10120000310D0A00474F54204950000041542B43F0
:10121000574A41503D4A3233333434222C22313143
:10122000323233333434220D0A000000434F4E4E25
:101230004543540041542B43495053544152543D6B
:1012400022544350222C223138332E3233302E3464
:10125000302E3339222C363030320D0A0000000097
:101260002DE9F04105460E4614462846FEF7A8FF34
:1012700087B23946284603F047F80FE000F03AF805
:1012800048B931460948FEF77FFF20B1FFF788FED5
:101290000020BDE8F0810A2003F000FD201EA4F12B
:1012A00001018CB2EAD10120F3E70000951D002076
:1012B00030B589B005460C46FFF772FE224608A1FC
:1012C00001A803F057F8C82209A101A8FFF7C8FF39
:1012D00018B92146284603F017F809B030BD0000C0
:1012E00041542B43495053454E443D25640D0A005B
:1012F0003E0000000A48008808B9012070470848ED
:10130000008808490988884203D1002004490880E0
:10131000F4E703480088034908800120EEE7000055
:10132000C2000020C40000202DE9F0410246002543
:101330000026002000230024002791F803C00CF0B1
:101340000F0591F803C00CF0100CBCF1000F03D096
:1013500091F802C04CEA050591F800C0BCF1000FFD
:1013600031D0146800202BE04FF0010C0CFA00F390
:10137000B1F800C00CEA03069E4220D183004FF072
:101380000F0C0CFA03F7BC4305FA03FC4CEA040407
:1013900091F803C0BCF1280F06D14FF0010C0CFAF4
:1013A00000FCC2F814C00AE091F803C0BCF1480F79
:1013B00005D14FF0010C0CFA00FCC2F810C0401C23
:1013C0000828D1D31460B1F800C0BCF1FF0F34DDA0
:1013D000546800202EE000F1080C4FF0010808FAD4
:1013E0000CF3B1F800C00CEA03069E4221D1830041
:1013F0004FF00F0C0CFA03F7BC4305FA03FC4CEA60
:10140000040491F803C0BCF1280F05D100F1080CC9
:1014100008FA0CF8C2F8148091F803C0BCF1480F28
:1014200007D100F1080C4FF0010808FA0CF8C2F8D7
:101430001080401C0828CED35460BDE8F0810246DD
:10144000002093680B400BB1012000E000207047A2
:1014500041617047016170470AB1016100E041617B
:10146000704700BFFEE770B5024600240025002348
:101470000020958A138B1B0445EA030626F07F445F
:1014800004EA01068E4201D1012000E0002070BD77
:1014900021B1028842F00102028004E002884FF686
:1014A000FE731A400280704700B585B001214805DF
:1014B00002F0C8FA0121082002F0E4FAC020ADF8D9
:1014C000000003208DF802001C208DF803006946FF
:1014D0001148FFF729FF114800F024F80020ADF86B
:1014E00008004BF6FF70ADF80A003020ADF80C0094
:1014F0004FF48060ADF80E000001ADF81000084810
:10150000019001210548FFF7C3FF01A9034800F03E
:101510005BF805B000BD0000000C01400054004025
:10152000801A060010B504460B48844209D10121F7
:10153000480502F097FA00214FF4001002F092FAE9
:1015400008E00121880502F08DFA00214FF48000A7
:1015500002F088FA10BD00000054004021B102885A
:1015600042F48072028004E002884FF6FF631A4062
:101570000280704721B1028842F40072028004E0C8
:1015800002884FF6FF531A40028070470CB502469E
:10159000002000230193009300920B0F019321F090
:1015A0007F41019B1BB1009B1433009303E0090CA6
:1015B000009B18330093009B1B680B400BB101206C
:1015C00000E000200CBD00002DE9F04385B004468A
:1015D0000D460026B1460427DFF8CC80A6884FF6DA
:1015E000C0700640684602F05DFADDF808802F48BA
:1015F000B8FBF0F01FFA80F946EA0906A6802088B9
:101600004FF6FE710840208000262949286888424C
:101610000CD828684000B8FBF0F087B2042F00DA3D
:1016200004273E4309F10100208427E0E8884BF6B7
:10163000FF71884206D1286800EB4000B8FBF0F04B
:1016400087B209E0286800EBC00101EB0010B8FB8D
:10165000F0F087B247F48047C7F30B0008B947F0B2
:10166000010747F4004006434FF4967009FB00F071
:101670004FF47A7190FBF1F0401C2084A6832088FF
:1016800040F00100208026884FF6F5300640A888FB
:101690006989084306432680A8892989084320814F
:1016A00005B0BDE8F083000000127A0040420F0050
:1016B000A086010012B141F0010102E04FF6FE7375
:1016C00019400182704701827047000070B50446DE
:1016D0000D4600BF4FF400311C48FFF757FF0028AC
:1016E000F8D101211948FFF739FF00BF1849174801
:1016F000FFF7B9FE0028F9D0002278211348FFF740
:10170000D9FF00BF13491148FFF7ADFE0028F9D0FB
:1017100021460E48FFF7D7FF00BF0E49891C0B4832
:10172000FFF7A1FE0028F8D029460848FFF7CBFFB5
:1017300000BF0849891C0548FFF795FE0028F8D02E
:1017400001210248FFF716FF70BD00000054004061
:10175000010003008200070008B50121042002F007
:1017600091F94AF23120ADF8000001208DF8020015
:1017700048208DF8030069460148FFF7D5FD08BDF4
:10178000000C014070B504460D4629462046FFF77F
:1017900056FE08B9002070BD00BFFCE708B5012166
:1017A000102002F06FF94FF46040ADF800001020F7
:1017B0008DF8030003208DF8020069461348FFF7F7
:1017C000B3FD0120124908604FF460410F48FFF754
:1017D00041FE0121082002F055F94FF4C040ADF858
:1017E000000010208DF8030003208DF802006946E8
:1017F0000848FFF799FD01200749C1F8B4014FF4EB
:10180000C0410448FFF726FE08BD0000001001405B
:10181000B4012242000C01400000224210B50446EF
:10182000207B012802D1206803F092FA002020607A
:101830006060A060207310BD0246002301230DE00C
:1018400002F07F000870D2092AB1087840F08000C9
:101850000870491C01E0184670475B1C042BEFDD43
:101860004FF0FF30F8E770B504460E4600252068BB
:1018700098B901202073304603F0E0FF2060206813
:10188000E0B100206060A66003E0002021684855B8
:101890006D1CA068A842F8D810E00220207303E075
:1018A0000020216848556D1CA068A842F8D8002087
:1018B0006060A068B04201D20020206070BD0000CE
:1018C0002DE9FF5F07460D4690463846FEF778FC47
:1018D00086B22846FEF774FC1FFA80FA4FF0000922
:1018E000B01D03F0ABFF04461CB9012004B0BDE8F5
:1018F000F09FB11D2046FEF730FC12A00168216068
:101900008088A080324639462046FEF760FC284693
:10191000FEF756FC83460120002100915B462A46D3
:10192000CDE90208019121460A2000F05FF910B9C3
:101930004FF0000901E04FF00109204603F008FADA
:101940004846D3E724637273702F00002DE9FF4FE0
:1019500083B082468B469146159C0025002002905C
:101960000F2701904846FEF72BFC0FFA80F8B9F1DB
:10197000000F03D1012007B0BDE8F08F08F102008D
:10198000384487B2109808B145F00205129878B132
:1019900045F004051298FEF713FCC0B202901398AC
:1019A000FEF70EFC01460298001D0844384487B239
:1019B000119820B1012804D0022808D104E000BF0A
:1019C00007E045F00C0504E045F0140501E00220B5
:1019D000D1E700BF149808B145F02405BAF1000F13
:1019E00002D0BBF1000F01D10320C4E745F0C005D0
:1019F0005046FEF7E5FB06465846FEF7E1FB30444D
:101A0000001D384487B239462046FFF72CFF206876
:101A100008B90420AFE739462068FEF79EFB102185
:101A20006268501C606020688154D4E90023D1189A
:101A3000781FFFF701FF00B201900198002804DA37
:101A40002046FFF7EBFE052095E761680198084402
:101A5000606000216268501C60602068815404212D
:101A60006268501C6060206881544D216268501C7F
:101A700060602068815451216268501C6060206859
:101A8000815454216268501C6060206881546268EF
:101A9000501C60602068815404216268501C6060A2
:101AA000206881546168481C60602068455406982D
:101AB000010A6268501C6060206881540698C1B2B7
:101AC0006268501C606020688154C8F30721626816
:101AD000501C6060206881546268501C60602068FF
:101AE00000F80280D4E90012881842464946FEF701
:101AF0006EFB60684044606005F00400B8B30026E7
:101B0000139808B938A013901298FEF759FB86B2C3
:101B1000310A6268501C6060206881546268501C01
:101B2000606020688654D4E9001288183246129901
:101B3000FEF74DFB6068304460601398FEF740FB91
:101B400086B2310A6268501C606020688154626805
:101B5000501C606020688654D4E900128818324610
:101B60001399FEF734FB60683044606000BF05F0F5
:101B70008000C8B15046FEF723FB86B2310A626886
:101B8000501C6060206881546268501C606020684E
:101B90008654D4E90012881832465146FEF717FBE6
:101BA00060683044606000BF05F04000C8B158462E
:101BB000FEF706FB86B2310A6268501C606020683E
:101BC00081546268501C606020688654D4E9001219
:101BD000881832465946FEF7FAFA60683044606069
:101BE00000BF0020C7E60000000000002DE9FF4F05
:101BF00083B0834690469946139C0026002500201A
:101C0000029001900027BBF1000F03D1012007B023
:101C1000BDE8F08F00250AE00498405D232803D03A
:101C20000498405D2B2801D10220F0E76D1C049838
:101C3000405D0028F0D147F03007119808B147F017
:101C4000010705EB0900861C109820B1012804D07B
:101C500002280AD105E000BF09E047F00207B61CE0
:101C600005E047F00407B61C01E00320CFE700BF02
:101C700098F80000022822D14FF0000A00BF504619
:101C80000AF1010A18F800007D28F8D1AAF1030A28
:101C90000AF1070002900298A9EB000AF01CA0EBE1
:101CA0000A012046FFF7DFFD206808B90420AEE7EF
:101CB000F21CA2EB0A012068FEF74FFA0BE0F11CC0
:101CC0002046FFF7D0FD206808B904209FE7F11CEB
:101CD0002068FEF742FA6168481C6060206847543B
:101CE000D4E9000281183046FFF7A6FD0190019863
:101CF000002804DA2046FFF791FD052087E7616898
:101D0000019808446060C5F307216268501C606058
:101D1000206881546268501C606020688554D4E952
:101D2000001288182A460499FEF751FA6068284480
:101D30006060109860B14FEA1B216268501C6060BF
:101D4000206881546268501C6060206800F802B00E
:101D5000B8F1000F19D098F8000002280BD1D4E98F
:101D6000001288184146029AFEF7DEF9616802986F
:101D70000844606009E0D4E9001288184A464146E8
:101D8000FEF7D2F960684844606000203FE7000039
:101D90002DE9FF4107460D4690461E460A9C01204C
:101DA0000021CDE90001EB1C0A460FA1CDE9020498
:101DB0000A20FFF71BFF88B96168481C6060206833
:101DC0004654C5F307216268501C60602068815446
:101DD0006268501C60602068855403E0012004B0F4
:101DE000BDE8F0810020FAE724647000F0B50446F5
:101DF0000D462646012300201060002114E0775C88
:101E000007F07F07106807FB03001060705C00F0AC
:101E1000800008B9481CF0BDDB01B3F5001F02D3F8
:101E20006FF00100F7E7491CA942E8DB4FF0FF30F3
:101E3000F1E72DE9F84380460C4615461E462F2152
:101E400008F10600FEF7B2F907460020009017B926
:101E50000120BDE8F8837F1C6A46042108F10100D7
:101E6000FFF7C4FF252003F0E9FC2060206808B9D3
:101E70000220EEE725212068FEF76FF9242239467B
:101E80002068FEF751F9243700982C3830803188CB
:101E9000481C03F0D3FC2860286820B9206802F0B1
:101EA00057FF0320D5E73288511C2868FEF755F903
:101EB000328839462868FEF737F90020C9E701461D
:101EC0004878022801D001207047887810B18878BE
:101ED000012801D1C878F7E7FF20F5E701464878E7
:101EE000022801D001207047887820B9C8780A28D4
:101EF00001D10020F7E70120F5E70000F8B504461E
:101F0000FF2720780511012D01DB0E2D01DD38465C
:101F1000F8BD032D24D1002000906A460421601CE6
:101F2000FFF764FF2044461C0098022803D3207862
:101F300000F0010008B1FF20EAE77078317840EA4C
:101F40000120801C0099884201D9FF20E0E706A10A
:101F5000B01CFEF719F908B10F2700E0032700E0D5
:101F60002F463846D4E700002463726571000000F4
:101F700008B50121082001F085FD10208DF803002F
:101F80004FF44070ADF8000003208DF80200694660
:101F90000948FFF7C9F94FF440710748FFF758FAAD
:101FA00048208DF803004FF40060ADF8000069464A
:101FB0000148FFF7B9F908BD000C014000BFFEE77A
:101FC0007047000070B5002100230F22C47804B3CD
:101FD000154C246804F4E064C4F5E064210AC1F1FE
:101FE0000403CA40447804FA03F18478144021437E
:101FF00009010E4C0678A155047804F01F05012450
:10200000AC4005786D11AD0005F1E025C5F8004143
:1020100009E0047804F01F050124AC40044D067863
:10202000761145F8264070BD0CED00E000E400E0BC
:1020300080E100E002490143024A1160704700005C
:102040000000FA050CED00E010B5002000F001F8EA
:1020500010BD70B50646002415E004F1B001C8B209
:1020600002F06AF9002002F067F9102002F064F92A
:10207000002504E0304602F066F9681CC5B2802DE8
:10208000F8DB601CC4B2082CE7DB70BD10B5FFF7AD
:102090000BFA642002F002FEAE2002F04DF920207F
:1020A00002F04AF9102002F047F9B02002F044F99A
:1020B000C82002F041F9002002F03EF9102002F0A1
:1020C0003BF9402002F038F9812002F035F9FF2079
:1020D00002F032F9A12002F02FF9A62002F02CF92B
:1020E000A82002F029F93F2002F026F9A42002F0EE
:1020F00023F9D32002F020F9002002F01DF9D520A9
:1021000002F01AF9F02002F017F9D92002F014F9C0
:10211000222002F011F9DA2002F00EF9122002F06A
:102120000BF9DB2002F008F9202002F005F98D20E0
:1021300002F002F9142002F0FFF8AF2002F0FCF8E0
:10214000FFF782FF10BD70B504460D4605F1B001E2
:10215000C8B202F0F1F8102141EA141002F0ECF8D4
:1021600004F00F0141F0010002F0E6F870BD00003C
:102170002DE9F04180460E46174600247D01314688
:102180004046FFF7E0FF00BF06E00D49485D02F062
:10219000DAF86D1C601CC4B2102CF6DB701CC1B2E6
:1021A0004046FFF7D0FF002406E00549485D02F0F5
:1021B000CAF86D1C601CC4B2102CF6DBBDE8F081BF
:1021C000C60000202DE9F0470646894617469A4684
:1021D0004FF0000800240025BAF1010F03D0BAF136
:1021E000020F5ED125E020E0785D203800F0FF0886
:1021F0007E2E04DD002609F1010000F0FF094946AA
:102200003046FFF7A0FF002409E008EB4801264A0A
:1022100002EB4101085D02F096F8601CC4B2062C86
:10222000F3DBB01DC6B2681CC5B2785D0028DBD1F7
:1022300037E032E0785D203800F0FF08782E04DDCA
:10224000002609F1010000F0FF0949463046FFF77A
:102250007AFF002407E004EB0811144A505C02F0F6
:1022600072F8601CC4B2082CF5DB09F10100C1B2A0
:102270003046FFF768FF002408E004EB081108313E
:102280000A4A505C02F05FF8601CC4B2082CF4DB10
:1022900006F10800C6B2681CC5B2785D0028C9D135
:1022A00000BF00BFBDE8F08788610008B063000888
:1022B0002DE9F041054688460027B8F1330F80F03C
:1022C0005185DFE818F033004B0063007B0093007A
:1022D000AB00C300DB00F3000B0123013B01530102
:1022E0006B0183019B01B301CB01E301FB011302ED
:1022F0002B026D0285029D02B502CD02E502FD02B0
:1023000015032D0345035D0375038D03A503BD036D
:10231000D503ED0305041D0435044D048F04A70403
:10232000BF04D704EF0407051F0537052C4611E04D
:1023300021460020FFF707FF002607E039467F1CF3
:10234000F74A505C01F0FFFF701CC6B2802EF5DB2F
:10235000601CC4B2601B0228EADB38E22C4611E0A4
:1023600021460020FFF7EFFE002607E039467F1CDC
:10237000EC4A505C01F0E7FF701CC6B2802EF5DB22
:10238000601CC4B2601B0228EADBE6E72C4611E0C1
:1023900021460020FFF7D7FE002607E039467F1CC4
:1023A000E14A505C01F0CFFF701CC6B2802EF5DB15
:1023B000601CC4B2601B0228EADBCEE72C4611E0A9
:1023C00021460020FFF7BFFE002607E039467F1CAC
:1023D000D64A505C01F0B7FF701CC6B2802EF5DB08
:1023E000601CC4B2601B0228EADBB6E72C4611E091
:1023F00021460020FFF7A7FE002607E039467F1C94
:10240000CB4A505C01F09FFF701CC6B2802EF5DBFA
:10241000601CC4B2601B0228EADB9EE72C4611E078
:1024200021460020FFF78FFE002607E039467F1C7B
:10243000C04A505C01F087FF701CC6B2802EF5DBED
:10244000601CC4B2601B0228EADB86E72C4611E060
:1024500021460020FFF777FE002607E039467F1C63
:10246000B54A505C01F06FFF701CC6B2802EF5DBE0
:10247000601CC4B2601B0228EADB6EE72C4611E048
:1024800021460020FFF75FFE002607E039467F1C4B
:10249000AA4A505C01F057FF701CC6B2802EF5DBD3
:1024A000601CC4B2601B0228EADB56E72C4611E030
:1024B00021460020FFF747FE002607E039467F1C33
:1024C0009F4A505C01F03FFF701CC6B2802EF5DBC6
:1024D000601CC4B2601B0228EADB3EE72C4611E018
:1024E00021460020FFF72FFE002607E039467F1C1B
:1024F000944A505C01F027FF701CC6B2802EF5DBB9
:10250000601CC4B2601B0228EADB26E72C4611E0FF
:1025100021460020FFF717FE002607E039467F1C02
:10252000894A505C01F00FFF701CC6B2802EF5DBAB
:10253000601CC4B2601B0228EADB0EE72C4611E0E7
:1025400021460020FFF7FFFD002607E039467F1CEB
:102550007E4A505C01F0F7FE701CC6B2802EF5DB9F
:10256000601CC4B2601B0228EADBFBE32C4611E0CE
:1025700021460020FFF7E7FD002607E039467F1CD3
:10258000734A505C01F0DFFE701CC6B2802EF5DB92
:10259000601CC4B2601B0228EADBE3E32C4611E0B6
:1025A00021460020FFF7CFFD002607E039467F1CBB
:1025B000684A505C01F0C7FE701CC6B2802EF5DB85
:1025C000601CC4B2601B0228EADBCBE32C4611E09E
:1025D00021460020FFF7B7FD002607E039467F1CA3
:1025E0005D4A505C01F0AFFE701CC6B2802EF5DB78
:1025F000601CC4B2601B0228EADBB3E32C4611E086
:1026000021460020FFF79FFD002607E039467F1C8A
:10261000524A505C01F097FE701CC6B2802EF5DB6A
:10262000601CC4B2601B0228EADB9BE32C4611E06D
:1026300021460020FFF787FD002607E039467F1C72
:10264000474A505C01F07FFE701CC6B2802EF5DB5D
:10265000601CC4B2601B0228EADB83E32C4611E055
:1026600021460020FFF76FFD002607E039467F1C5A
:102670003C4A505C01F067FE701CC6B2802EF5DB50
:10268000601CC4B2601B0228EADB6BE32C4611E03D
:1026900021460020FFF757FD002607E039467F1C42
:1026A000314A505C01F04FFE701CC6B2802EF5DB43
:1026B000601CC4B2601B0228EADB53E32C4611E025
:1026C00021460020FFF73FFD002607E039467F1C2A
:1026D000264A505C01F037FE701CC6B2802EF5DB36
:1026E000601CC4B2601B0228EADB3BE32C4611E00D
:1026F00021460020FFF727FD002607E039467F1C12
:102700001B4A505C01F01FFE701CC6B2802EF5DB28
:10271000601CC4B2601B0228EADB23E32C463BE0CA
:10272000A0690008A06A0008A06B0008A06C00085F
:10273000A06D0008A06E0008A06F0008A07000083F
:10274000A0710008A0720008A0730008A07400081F
:10275000A0750008A0760008A0770008A0780008FF
:10276000A0790008A07A0008A07B0008A07C0008DF
:10277000A07D000821460020FFF7E5FC002607E0C9
:1027800039467F1CF74A505C01F0DDFD701CC6B273
:10279000802EF5DB601CC4B2601B0228EADBE1E29C
:1027A0002C4611E021460020FFF7CDFC002607E073
:1027B00039467F1CEC4A505C01F0C5FD701CC6B266
:1027C000802EF5DB601CC4B2601B0228EADBC9E284
:1027D0002C4611E021460020FFF7B5FC002607E05B
:1027E00039467F1CE14A505C01F0ADFD701CC6B259
:1027F000802EF5DB601CC4B2601B0228EADBB1E26C
:102800002C4611E021460020FFF79DFC002607E042
:1028100039467F1CD64A505C01F095FD701CC6B24B
:10282000802EF5DB601CC4B2601B0228EADB99E253
:102830002C4611E021460020FFF785FC002607E02A
:1028400039467F1CCB4A505C01F07DFD701CC6B23E
:10285000802EF5DB601CC4B2601B0228EADB81E23B
:102860002C4611E021460020FFF76DFC002607E012
:1028700039467F1CC04A505C01F065FD701CC6B231
:10288000802EF5DB601CC4B2601B0228EADB69E223
:102890002C4611E021460020FFF755FC002607E0FA
:1028A00039467F1CB54A505C01F04DFD701CC6B224
:1028B000802EF5DB601CC4B2601B0228EADB51E20B
:1028C0002C4611E021460020FFF73DFC002607E0E2
:1028D00039467F1CAA4A505C01F035FD701CC6B217
:1028E000802EF5DB601CC4B2601B0228EADB39E2F3
:1028F0002C4611E021460020FFF725FC002607E0CA
:1029000039467F1C9F4A505C01F01DFD701CC6B209
:10291000802EF5DB601CC4B2601B0228EADB21E2DA
:102920002C4611E021460020FFF70DFC002607E0B1
:1029300039467F1C944A505C01F005FD701CC6B2FC
:10294000802EF5DB601CC4B2601B0228EADB09E2C2
:102950002C4611E021460020FFF7F5FB002607E09A
:1029600039467F1C894A505C01F0EDFC701CC6B2F0
:10297000802EF5DB601CC4B2601B0228EADBF1E1AB
:102980002C4611E021460020FFF7DDFB002607E082
:1029900039467F1C7E4A505C01F0D5FC701CC6B2E3
:1029A000802EF5DB601CC4B2601B0228EADBD9E193
:1029B0002C4611E021460020FFF7C5FB002607E06A
:1029C00039467F1C734A505C01F0BDFC701CC6B2D6
:1029D000802EF5DB601CC4B2601B0228EADBC1E17B
:1029E0002C4611E021460020FFF7ADFB002607E052
:1029F00039467F1C684A505C01F0A5FC701CC6B2C9
:102A0000802EF5DB601CC4B2601B0228EADBA9E162
:102A10002C4611E021460020FFF795FB002607E039
:102A200039467F1C5D4A505C01F08DFC701CC6B2BB
:102A3000802EF5DB601CC4B2601B0228EADB91E14A
:102A40002C4611E021460020FFF77DFB002607E021
:102A500039467F1C524A505C01F075FC701CC6B2AE
:102A6000802EF5DB601CC4B2601B0228EADB79E132
:102A70002C4611E021460020FFF765FB002607E009
:102A800039467F1C474A505C01F05DFC701CC6B2A1
:102A9000802EF5DB601CC4B2601B0228EADB61E11A
:102AA0002C4611E021460020FFF74DFB002607E0F1
:102AB00039467F1C3C4A505C01F045FC701CC6B294
:102AC000802EF5DB601CC4B2601B0228EADB49E102
:102AD0002C4611E021460020FFF735FB002607E0D9
:102AE00039467F1C314A505C01F02DFC701CC6B287
:102AF000802EF5DB601CC4B2601B0228EADB31E1EA
:102B00002C4611E021460020FFF71DFB002607E0C0
:102B100039467F1C264A505C01F015FC701CC6B279
:102B2000802EF5DB601CC4B2601B0228EADB19E1D1
:102B30002C4611E021460020FFF705FB002607E0A8
:102B400039467F1C1B4A505C01F0FDFB701CC6B26D
:102B5000802EF5DB601CC4B2601B0228EADB01E1B9
:102B60002C463BE0A07E0008A07F0008A080000863
:102B7000A0810008A0820008A0830008A0840008AB
:102B8000A0850008A0860008A0870008A08800088B
:102B9000A0890008A08A0008A08B0008A08C00086B
:102BA000A08D0008A08E0008A08F0008A09000084B
:102BB000A0910008A092000821460020FFF7C3FA68
:102BC000002607E039467F1C684A505C01F0BBFBD9
:102BD000701CC6B2802EF5DB601CC4B2601B0228DC
:102BE000EADBBFE02C4611E021460020FFF7ABFAFC
:102BF000002607E039467F1C5D4A505C01F0A3FBCC
:102C0000701CC6B2802EF5DB601CC4B2601B0228AB
:102C1000EADBA7E02C4611E021460020FFF793FAFB
:102C2000002607E039467F1C524A505C01F08BFBBE
:102C3000701CC6B2802EF5DB601CC4B2601B02287B
:102C4000EADB8FE02C4611E021460020FFF77BFAFB
:102C5000002607E039467F1C474A505C01F073FBB1
:102C6000701CC6B2802EF5DB601CC4B2601B02284B
:102C7000EADB77E02C4611E021460020FFF763FAFB
:102C8000002607E039467F1C3C4A505C01F05BFBA4
:102C9000701CC6B2802EF5DB601CC4B2601B02281B
:102CA000EADB5FE02C4611E021460020FFF74BFAFB
:102CB000002607E039467F1C314A505C01F043FB97
:102CC000701CC6B2802EF5DB601CC4B2601B0228EB
:102CD000EADB47E02C4611E021460020FFF733FAFB
:102CE000002607E039467F1C264A505C01F02BFB8A
:102CF000701CC6B2802EF5DB601CC4B2601B0228BB
:102D0000EADB2FE02C4611E021460020FFF71BFAFA
:102D1000002607E039467F1C1B4A505C01F013FB7C
:102D2000701CC6B2802EF5DB601CC4B2601B02288A
:102D3000EADB17E02C4611E021460020FFF703FAFA
:102D4000002607E039467F1C104A505C01F0FBFA70
:102D5000701CC6B2802EF5DB601CC4B2601B02285A
:102D6000EADB00BF00BFBDE8F0810000A0930008CF
:102D7000A0940008A0950008A0960008A09700085D
:102D8000A0980008A0990008A09A0008A09B00083D
:102D900030B58BB000200790089009900A9001256B
:102DA000FFF752F90F2202211046FFF7E1F9102236
:102DB00002211F20FFF7DCF9112202212F20FFF74B
:102DC000D7F90D2202213F20FFF7D2F90E2202216E
:102DD0004F20FFF7CDF90A2202215F20FFF7C8F943
:102DE00007A8002102910391CDE9041000912B0264
:102DF0002FA2019131A133A0FEF7A8FD002840D1F8
:102E0000089A91B20798FEF753FAFA20FEF7D6F81F
:102E1000044674B32046FFF771F802282DD12046EE
:102E2000FFF74DF8062826D2DFE800F0031F202127
:102E300022240025FFF708F90D2204211F20FFF7A7
:102E400097F90E2204212F20FFF792F90C2204217A
:102E50003F20FFF78DF9122204214F20FFF788F958
:102E60004FF4FA7001F01AFF06E005E004E003E019
:102E700002E002E000E000BF00BF07A8FEF7CEFCC2
:102E800004E01A2204212F20FFF772F91B220421EB
:102E90003F20FFF76DF91C2206212F20FFF768F96C
:102EA0001D2206213F20FFF763F928460BB030BDF5
:102EB000313231353139323138370000353132363F
:102EC00032343100363334343233000010B588B038
:102ED000044620216846FDF740F93DA12046FDF754
:102EE0008AF920216846FDF738F93A4802783AA174
:102EF000684601F03FFA69462046FDF739F920217E
:102F00006846FDF72AF93748027837A1684601F08C
:102F100031FA69462046FDF72BF920216846FDF776
:102F20001CF93448027834A1684601F023FA694656
:102F30002046FDF71DF920216846FDF70EF93148BE
:102F4000027831A1684601F015FA69462046FDF77E
:102F50000FF920216846FDF700F92E4802782EA1CE
:102F6000684601F007FA69462046FDF701F920217D
:102F70006846FDF7F2F82B4802782BA1684601F06D
:102F8000F9F969462046FDF7F3F820216846FDF778
:102F9000E4F82848027828A1684601F0EBF9694670
:102FA0002046FDF7E5F820216846FDF7D6F82548CC
:102FB000027825A1684601F0DDF969462046FDF753
:102FC000D7F82046FDF7FCF8C0B208B010BD0000ED
:102FD0002C3B000011000020736869312C25643BF4
:102FE000000000001000002066656E312C25643B57
:102FF0000000000014000020736869322C25643B37
:10300000000000001300002066656E322C25643B32
:10301000000000001700002073686933332C25641A
:103020003B0000001600002066656E332C25643BD3
:10303000000000001A000020736869342C25643BEE
:10304000000000001900002066656E342C25643BEA
:103050000000000010B58AB00446202102A8FDF748
:103060007CF831A12046FDF7C6F8202102A8FDF723
:1030700074F82E4800782E490978CDE900102D48C3
:1030800003782D4802782DA102A801F073F902A956
:103090002046FDF76DF8202102A8FDF75EF83048C4
:1030A000007800902F4803782F4802782FA102A8BB
:1030B00001F060F902A92046FDF75AF8202102A884
:1030C000FDF74BF8304800780090304803783048DE
:1030D000027830A102A801F04DF902A92046FDF7BF
:1030E00047F8202102A8FDF738F82F4802782FA1D1
:1030F00002A801F03FF902A92046FDF739F8202186
:1031000002A8FDF72AF82B4802782BA102A801F0AB
:1031100031F902A92046FDF72BF82046FDF750F8BB
:10312000C0B20AB010BD00002C3B00001E00002001
:103130001D0000201C0000201B00002074656D7025
:10314000657261747572652C253032643A253032AF
:10315000643A253032643A253032643B0000000086
:1031600031000020210000202500002068756D69D5
:10317000646974792C483A256420443A25642052C5
:103180003A25643B00000000360000203500002096
:10319000320000204761732C4125642042256420C1
:1031A0004325643B000000000A0000207368692C7E
:1031B00025643B000900002066656E2C25643B00F9
:1031C0002DE9F04F8BB082460020079008900990BF
:1031D0000A90069005900490002500260024814660
:1031E0005046FEF78BFE0546042D18D00F2D1CD13E
:1031F00004AB06AA05A95046FEF71BFE06466EB9AB
:1032000007AADDE90501FEF75BFB38B9089A91B220
:103210000798FEF74DF807A8FEF700FB08E05046B8
:10322000FEF75CFE00B903E000BF4FF0FF3600BFC1
:1032300000BFFDF7B5FE701C10B90BB0BDE8F08FF4
:103240003A210698FCF7B2FF0446002C39D0701CD6
:103250000028FBD0641C06E014F8012B484609F155
:10326000010901A90A542078302802DB2078392886
:10327000F2DD002001A901F8090001A8FCF7C4FF54
:103280008146F7A10698FCF77FFF002819D1F6A127
:103290000698FCF779FF0028F8D1F5A10698FCF70D
:1032A00073FF0028F2D1F4A10698FCF76DFF002807
:1032B000ECD1F3A10698FCF767FF18B1F2A001F07A
:1032C00049F809E3F3A10698FCF75EFF0028F8D15E
:1032D000F2A10698FCF758FF18B1F2A001F03AF8F5
:1032E000FAE2F3A10698FCF74FFF0028E9D1F2A11A
:1032F0000698FCF749FF0028E3D1F1A10698FCF7F6
:1033000043FF18B1F0A001F025F8E5E2F1A106981D
:10331000FCF73AFFD8B33D210698FCF747FFB0B35E
:103320003D210698FCF742FF83460BF101073878F0
:103330007D2800D17F1C3846FCF766FF1FFA80F815
:10334000642098FBF0F0E5490870642098FBF0F1E8
:1033500000FB1180E2490870E0480078182802DB81
:103360000020DE490870DE4800783C2802DB00209F
:10337000DB4908700020DB490870DB4908606420E5
:1033800001F08CFC0120D949C1F8B401A4E2FFE7A7
:10339000D7A10698FCF7F8FEC8B33D210698FCF7C4
:1033A00005FFA0B33D210698FCF700FF83460BF113
:1033B000010738787D2800D17F1C3846FCF724FFB0
:1033C0001FFA80F8642098FBF0F0CB490870642065
:1033D00098FBF0F100FB1180C8490870C6480078DE
:1033E000182802DB0020C4490870C44800783C2833
:1033F00002DB0020C14908700020BB49086064203E
:1034000001F04CFC0120B949C1F8B40164E2FFE7C6
:10341000BBA10698FCF7B8FEC8B33D210698FCF79F
:10342000C5FEA0B33D210698FCF7C0FE83460BF114
:10343000010738787D2800D17F1C3846FCF7E4FE70
:103440001FFA80F8642098FBF0F0AF490870642000
:1034500098FBF0F100FB1180AC490870AA48007895
:10346000182802DB0020A8490870A84800783C28EA
:1034700002DB0020A549087000209B4908606420F9
:1034800001F00CFC01209949C1F8B40124E2FFE7E6
:103490009FA10698FCF778FEC8B33D210698FCF77B
:1034A00085FEA0B33D210698FCF780FE83460BF114
:1034B000010738787D2800D17F1C3846FCF7A4FE30
:1034C0001FFA80F8642098FBF0F09349087064209C
:1034D00098FBF0F100FB1180904908708E4800784D
:1034E000182802DB00208C4908708C4800783C28A2
:1034F00002DB00208949087000207B4908606420B5
:1035000001F0CCFB01207949C1F8B401E4E1FFE707
:1035100083A10698FCF738FEC8B33D210698FCF756
:1035200045FEA0B33D210698FCF740FE83460BF113
:10353000010738787D2800D17F1C3846FCF764FEEF
:103540001FFA80F8642098FBF0F077490870642037
:1035500098FBF0F100FB1180744908707248007804
:10356000182802DB002070490870704800783C2859
:1035700002DB00206D49087000205B490860642070
:1035800001F08CFB01205949C1F8B401A4E1FFE727
:1035900067A10698FCF7F8FD58B167480078401C11
:1035A00065490870084600780928AFDB09200870D3
:1035B00092E162A10698FCF7E7FD58B15E480078F9
:1035C000401E5D4908700846007801289EDC0120F5
:1035D000087081E15BA10698FCF7D6FD58B15B4805
:1035E0000078401C594908700846007809288DDB8E
:1035F0000920087070E156A10698FCF7C5FD58B186
:1036000052480078401E5149087008460078012849
:10361000BCDC012008705FE14FA10698FCF7B4FD07
:1036200058B14F480078401C4D4908700846007852
:103630000928ABDB092008704EE14AA10698FCF787
:10364000A3FD58B146480078401E45490870084619
:10365000007801289ADC012008703DE186E0000036
:103660004B314F46460000004B314F4E00000000EA
:103670004B324F4E000000004B324F4646000000D8
:103680004B334F4E0000000041373A303030303578
:103690000D0A00004D536B6B000000004B344F4E81
:1036A0000000000041373A30303030330D0A00005E
:1036B0004B344F46460000004B354F464600000055
:1036C0004B354F4E0000000041373A303030303437
:1036D0000D0A000073797354696D65000A000020BB
:1036E0000900002008000020B4012242000022420C
:1036F00079743154696D65001100002010000020BC
:1037000079743254696D65001400002013000020A4
:1037100079743354696D650017000020160000208D
:1037200079743454696D65001A0000201900002076
:10373000594C314A494100001B000020594C314C82
:1037400000000000594C324A494100001C00002092
:10375000594C324C00000000594C334A494100009A
:103760001D000020594C334C0000000060A1069859
:10377000FCF70AFD58B160480078401C5E490870AB
:1037800008460078092801DB09200870A4E05BA145
:103790000698FCF7F9FC58B157480078401E564986
:1037A0000870084600780128F0DC0120087093E0DA
:1037B00054A10698FCF7E8FCF8B13D210698FCF707
:1037C000F5FCD0B13D210698FCF7F0FC804608F1ED
:1037D000010738787D2800D17F1C3846FCF714FD9E
:1037E00049490870002049490860C82001F056FA8C
:1037F00001204749C1F8B4016EE046A10698FCF7E4
:10380000C3FCF8B13D210698FCF7D0FCD0B13D21B6
:103810000698FCF7CBFC804608F1010738787D2834
:1038200000D17F1C3846FCF7EFFC3B4908700020B4
:1038300036490860C82001F031FA01203449C1F846
:10384000B40149E035A10698FCF79EFCF8B13D2192
:103850000698FCF7ABFCD0B13D210698FCF7A6FC1E
:10386000804608F1010738787D2800D17F1C384652
:10387000FCF7CAFC2A490870002024490860C820C7
:1038800001F00CFA01202249C1F8B40124E025A17D
:103890000698FCF779FCF8B13D210698FCF786FC08
:1038A000D0B13D210698FCF781FC804608F1010764
:1038B00038787D2800D17F1C3846FCF7A5FC0E49DE
:1038C0000870002011490860C82001F0E7F90120C4
:1038D0000F49C1F8B40100BF0F2D01D0032D05D150
:1038E000059801F035FA069801F032FA00BFA4E419
:1038F000594C344A494100001E000020594C344CB8
:1039000000000000594C31001B000020B40122428D
:1039100000002242594C32001C000020594C330058
:103920001D000020594C340030B5A5B00020219076
:1039300022902390249000240025802101A8FCF7E8
:103940000CFC01A8FFF786FB0446E4B121A805237F
:103950000022214600900DA0FEF71AFA98B908E05F
:1039600001A8415D229A501C229021988154681C24
:1039700005B2A542F4DB229A91B22198FDF798FC9A
:1039800021A8FDF74BFF25B030BD000031323135A5
:10399000313932313837000030B5A5B000202190E0
:1039A00022902390249000240025802101A8FCF778
:1039B000D4FB01A8FFF78AFA0446E4B121A8052345
:1039C0000022214600900DA0FEF7E2F998B908E028
:1039D00001A8415D229A501C229021988154681CB4
:1039E00005B2A542F4DB229A91B22198FDF760FC62
:1039F00021A8FDF713FF25B030BD0000313231356D
:103A0000313932313837000070470000014600205C
:103A1000034A506820F4404008435060704700005B
:103A20000010024029B1064A52690243044B5A6110
:103A300004E0034A52698243014B5A617047000017
:103A40000010024029B1064AD2690243044BDA61F0
:103A500004E0034AD2698243014BDA6170470000F7
:103A60000010024029B1064A12690243044B1A6150
:103A700004E0034A12698243014B1A617047000057
:103A80000010024029B1064A92690243044B9A6130
:103A900004E0034A92698243014B9A617047000037
:103AA0000010024030B500210022002400232D4DDB
:103AB0006D6805F00C0121B1042905D0082923D136
:103AC00005E0294D056022E0274D05601FE0254DEA
:103AD0006D6805F47012234D6D6805F4803402257D
:103AE00005EB92421CB9214D554305600BE01D4D7D
:103AF0006D6805F400351DB11C4D5543056002E0AD
:103B0000194D5543056002E0174D056000BF00BF29
:103B1000144D6D6805F0F0010909154D6B5C0568E1
:103B2000DD4045600F4D6D6805F4E061090A104DF8
:103B30006B5C4568DD4085600A4D6D6805F4605139
:103B4000C90A0B4D6B5C4568DD40C560054D6D686D
:103B500005F44041890B074D6B5CC568B5FBF3F577
:103B6000056130BD0010024000127A0000093D00DE
:103B7000AE000020BE000020704710B500F002F833
:103B800010BD00000CB50020019000903348006883
:103B900040F480303149086000BF3048006800F4CC
:103BA000003000900198401C0190009818B90198CD
:103BB000B0F5A06FF1D12948006800F4003010B1D1
:103BC0000120009001E0002000900098012843D1DE
:103BD0002348006840F0100021490860084600684A
:103BE00020F0030008600846006840F0020008600A
:103BF0001A484068194948600846406848600846C5
:103C0000406840F4806048600846406820F47C10BA
:103C100048600846406840F4E8104860084600687C
:103C200040F08070086000BF0C48006800F0007031
:103C30000028F9D00948406820F00300074948608F
:103C40000846406840F00200486000BF03484068F2
:103C500000F00C000828F9D10CBD00000010024053
:103C600000200240042808D14FF0E021096941F00A
:103C700004014FF0E022116107E04FF0E0210969F3
:103C800021F004014FF0E0221161704710B5134894
:103C9000006840F00100114908600846406810497A
:103CA00008400E494860084600680E4908400B4924
:103CB00008600846006820F48020086008464068D4
:103CC00020F4FE0048604FF41F008860FFF755FFA6
:103CD0004FF000600449086010BD00000010024071
:103CE0000000FFF8FFFFF6FE08ED00E010B501212F
:103CF000224800F08EF800283ED021480088401C61
:103D00001F49088008460088642804DB00200880DA
:103D100001201C4908701C480088401C1A49088072
:103D200008460088B0F57A7F22DB0020088017481B
:103D30000078401C15490870084600783C2817DBBD
:103D40000020087012480078401C1149087008468D
:103D500000783C280CDB002008700E480078401CDE
:103D60000C49087008460078182801DB002008700C
:103D70000121024800F03EF810BD000000040040A0
:103D80000C0000200E000020880000200800002009
:103D9000090000200A0000207FB505460C460121DD
:103DA0000220FFF74FFEADF80850ADF804400020A8
:103DB000ADF80A00ADF8060001A90D4800F044F87E
:103DC000012211460A4800F035F81D208DF8000048
:103DD00001208DF801008DF802008DF8030068467F
:103DE000FEF7F0F80121024800F007F87FBD00005F
:103DF00000040040CA430282704721B1028842F0A9
:103E00000102028004E002884FF6FE731A4002802D
:103E1000704730B50246002000230024158A05EAC9
:103E20000103958905EA010413B10CB1012000E0FA
:103E3000002030BD1AB183890B43838102E083895E
:103E40008B43838170470000002202881D4B9842FB
:103E50000ED01D4B98420BD0B0F1804F08D01B4BB9
:103E6000984205D01A4B984202D01A4B984204D17E
:103E70004FF68F731A404B881A43174B984207D05E
:103E8000164B984204D04FF6FF431A40CB881A4392
:103E900002808B8883850B8803850A4B98420BD060
:103EA000094B984208D00E4B984205D00D4B9842D2
:103EB00002D00D4B984201D10B7A038601238382F5
:103EC00070470000002C0140003401400004004015
:103ED00000080040000C00400010004000140040AA
:103EE00000400140004401400048014010B540F24C
:103EF0002551204800F0EAF8002839D01D4800F08C
:103F0000A1F9C4B2242C02D100201B4908801A4810
:103F100001880088401C184A1080184844540078D2
:103F200024281ED1154800794D281AD1134840790C
:103F3000432816D10A2C14D150211148FCF70DF951
:103F40000D4802880D490E48FCF7EEF801200C4997
:103F500081F85000002008490880C8210748FCF774
:103F6000FCF805480088C82802DBC8200249088000
:103F700010BD000000380140A6000020CD1C00202C
:103F8000541C002010B540F225510E4800F09EF858
:103F9000B0B10D480088802802D300200A4908806B
:103FA0000848001D0088C1B2074802880088401CEC
:103FB000054B1880054881542021024800F064F820
:103FC00010BD000000440040C2000020951D0020EC
:103FD00010B586B0044601210820FFF753FD0121EA
:103FE0008804FFF72FFD4FF48060ADF81400032024
:103FF0008DF8160018208DF8170005A91248FDF756
:1040000093F94FF40060ADF8140004208DF8170008
:1040100005A90D48FDF788F901940020ADF80800C6
:10402000ADF80A00ADF80C00ADF810000C20ADF8AA
:104030000E0001A9054800F099F80121034800F09D
:104040002CF806B010BD0000000C014000480040F4
:1040500010B504460BE000BF80210A4800F029F8A3
:104060000028F9D014F8011B064800F0F0F8207879
:104070000028F0D100BF4021024800F01AF80028C3
:10408000F9D010BD0048004001F40072B2F5007F85
:1040900000D100BFCA430280704721B1828942F437
:1040A0000052828104E082894DF6FF731A408281BA
:1040B000704702460020B1F5007F00D100BF138891
:1040C0000B400BB1012000E00020704770B50246A4
:1040D000002400230025002040F66A16B14200D1DA
:1040E00000BFC1F3421501F01F03012606FA03F3D6
:1040F000012D02D19689334006E0022D02D1168AA5
:10410000334001E0968A33400C12012606FA04F48B
:104110001688344013B10CB1012000E0002070BDBE
:10412000F0B50346002400260025002040F66A175B
:10413000B94200D100BF1846C1F3421401F01F0676
:10414000012707FA06F5012C01D10C3004E0022CFE
:1041500001D1103000E014301AB107682F43076016
:1041600002E00768AF430760F0BD00002DE9F047AB
:1041700086B005460E460024A24600BFA146002791
:10418000B08900B100BF2F462C8A4CF6FF70044066
:10419000F08804432C82AC894EF6F3100440B088BA
:1041A00031890843718908430443AC81AC8A4FF6D6
:1041B000FF400440B0890443AC8201A8FFF772FCC1
:1041C0001F48874202D1DDF810A001E0DDF80CA005
:1041D000A88900F4004040B10AEBCA0000EB0A10C5
:1041E00031684900B0FBF1F807E00AEBCA0000EBC8
:1041F0000A1031688900B0FBF1F86420B8FBF0F0D8
:1042000004012009642101FB1089A88900F4004001
:1042100040B1322000EBC900B0FBF1F000F0070024
:10422000044308E0322000EB09106421B0FBF1F0F8
:1042300000F00F0004432C8106B0BDE8F0870000B9
:104240000038014001468888C0F308007047C1F378
:1042500008028280704700BFFEE7000010B586B0FC
:10426000044601210420FFF70DFC01214804FFF75B
:10427000E9FB18208DF817000420ADF81400032086
:104280008DF8160005A91E48FDF74EF804208DF89C
:1042900017000820ADF8140003208DF8160005A9BA
:1042A0001748FDF741F801940020ADF810000C20EC
:1042B000ADF80E000020ADF80C00ADF80A00ADF826
:1042C000080001A90F48FFF751FF01210D48FFF732
:1042D000E4FE012240F225510A48FFF721FF262083
:1042E0008DF8000001208DF8030000208DF80100FA
:1042F0008DF802006846FDF765FE06B010BD0000AF
:10430000000801400044004070B504460D460026F8
:104310000DE014F8011B0748FFF799FF00BF40218B
:104320000448FFF7C6FE0028F9D0701C86B2AE42E2
:10433000EFDB70BD0044004010B50446214600206C
:10434000FDF7C4F910BD10B5044621464020FDF725
:10435000BDF910BD0FB4054B10B503A9044A02986E
:1043600000F0F2F810BC5DF814FB0000354D0008B9
:10437000A80000200FB4084B10B504A902AA0398A6
:1043800000F0E2F8044602A9002000F060FC20469C
:1043900010BC5DF814FB00004F4C0008004870474B
:1043A000100C002002E008C8121F08C1002AFAD130
:1043B00070477047002001E001C1121F002AFBD1A5
:1043C000704700002DE9FF5F82B00021DDE9043075
:1043D000020DDDF840B0034318D044F61050A2F2AD
:1043E000FF3242431514119801281FD0A5EB0B0092
:1043F000401C5FEA000A4FF000064E4FDFF838918C
:10440000B046504615D5CAF1000413E011980124B6
:104410004AA3012801D16FEA0B010298119AC0E961
:104420000031C0E9024206B0BDE8F09FCBF10000C8
:10443000DFE704460021404A491842EB0450CDE929
:10444000001012E0E00707D032463B46404649469E
:10445000FCF717F98046894632463B461046194616
:10446000FCF70FF906460F466410002CEAD1DDE98F
:104470000401DDE90023BAF1000F06DAFCF701F9C7
:1044800042464B46FCF7FDF805E0FCF76CF9424666
:104490004B46FCF768F904460E460022284BFCF711
:1044A000E9F903D84FF0FF30014607E00022254B21
:1044B00020463146FCF73EF8FCF7C4F9102409E029
:1044C000002C0ADB0A220023FBF794FF039B303207
:1044D0001A55641E50EA0102F2D1641C039AC4F119
:1044E00011031444119A012A03D0012208430DD16B
:1044F0000AE0084304D000204FF0110B119072E73E
:10450000A3EB0B056D1E0DE05B4504DD4FF00002D3
:1045100005F1010504E003DA4FF00002A5F1010501
:10452000002AECD002981199C0E90231C0E9004597
:1045300079E70000000014400000F03F3000000068
:104540000000F0430000E03F2DE9FF4F95B09A4690
:10455000884606460025EEE1252877D10024274627
:10456000F94A0121039400E0044316F8013F203B7F
:1045700001FA03F01042F7D130782A2811D06FF0F9
:104580002F033078A0F13002092A16D8039A44F09C
:10459000020402EB820203EB42021044761C0390F9
:1045A000EFE758F8042B0392002A03DA504244F450
:1045B0000054039044F00204761C30782E2816D163
:1045C00016F8010F44F004042A280DD06FF02F02D2
:1045D0003078A0F13003092B09D807EB870302EBF1
:1045E0004303C718761CF3E758F8047B761C307831
:1045F0006C280FD006DC4C2817D068280DD06A280C
:1046000014D104E0742810D07A280FD10DE044F4BE
:1046100000140AE044F4801401E044F44014727879
:10462000824202D104F58014761C761C307866280C
:104630000BD013DC582877D009DC002875D045282A
:10464000F6D04628F4D047281AD193E118E0632821
:1046500035D0642879D0652812D18BE1702873D0C9
:1046600008DC6728F1D069286FD06E280DD06F283C
:1046700006D1ACE073282CD0752874D0782853D09C
:104680005246179990476D1C54E1C4F3025002281A
:1046900009D003280DD0D8F8001004280DD00D60E3
:1046A00008F1040846E1D8F80010EA17C1E9005201
:1046B000F6E7D8F800100D80F2E70D70F0E718F873
:1046C000041B8DF8001000208DF80100EB4601203E
:1046D00003E058F804BB4FF0FF3061074FF00001D2
:1046E00002D40DE009F101018946B9420FDA814592
:1046F000F8DB1BF809100029F4D108E009F10101E9
:1047000089468142FADB1BF809100029F6D103988B
:104710005346A0EB090721463846179A00F080FA65
:10472000284400EB090507E044E008E10DE01BF830
:10473000010B524617999047B9F10109F7D2534638
:1047400021463846179AF2E039E00A21C4F30252B2
:104750004FF0000B0091022A06D058F8040BC11745
:10476000032A09D00AE023E008F1070020F007023D
:10477000F2E80201904605E000B2C117042A01D117
:1047800040B2C117002906DA0A460021404261EB17
:1047900002012D2202E0220504D52B228DF80420EF
:1047A000012203E0E20701D02022F7E7914657E01B
:1047B0000A2100E010214FF0000B00910BE01021C6
:1047C0004FF0000B44F004040827009103E0082098
:1047D0004FF0000B0090C4F30252022A05D058F8A3
:1047E000040B0021032A08D008E008F1070020F09C
:1047F0000702F2E80201904603E080B2042A00D1E9
:10480000C0B24FF0000922072AD53278702A07D0AB
:10481000DDF800C08CF0100C5CEA0B0C05D00EE04B
:1048200040228DF80420012208E050EA010306D05E
:1048300030238DF804308DF8052002229146009B2C
:1048400083F0080353EA0B030AD150EA010201D1B5
:10485000620705D530228DF804204FF001097F1E34
:104860003278582A04D039A20C920CAA02920BE09A
:104870003BA2F9E75B46009AFBF7BCFD0C9B9B5CF7
:10488000029A521E0292137050EA0102F2D102986B
:1048900004A9081A00F1200B600702D524F4803423
:1048A00000E001275F4502DDA7EB0B0000E00020E0
:1048B00000EB0B01009003984944401A0390E00379
:1048C00006D453462146179A039800F0A9F90544E7
:1048D000002706E001A85246C05D179990476D1C5D
:1048E0007F1C4F45F6DBE0030CD553462146179A53
:1048F000039800F095F9054404E0302052461799DA
:1049000090476D1C0099481E00900029F5DC08E0D6
:104910000298029952460078491C029117999047D3
:104920006D1CBBF10001ABF1010BF1DC5BE100F0B0
:1049300065F90544761C307800287FF40DAE19B077
:104940002846BDE8F08F00000928010030313233DD
:1049500034353637383961626364656600000000BB
:1049600030313233343536373839414243444546A5
:1049700000000000600700D4062708F1070020F0BF
:104980000700F0E80223804603F0004C5FEA0C00C9
:1049900001D097A009E0200501D596A005E0E00729
:1049A00001D095A001E0AFF24C001390307823F0D5
:1049B000004365280CD006DC452809D046281DD0C8
:1049C00047287FD13BE0662818D067287AD136E0A7
:1049D0000021112F01DB112000E0781CCDE900013E
:1049E00004A90CA8FFF7EEFCDDE90D010C9A4FF0CD
:1049F000000B07F10109109200914EE04FF00040CA
:104A00000097CDE9011004A90CA8FFF7DBFCDDE954
:104A10000D020C9B0F994FF0000B914610930092E2
:104A200011B9791C00EB0109B7EB090003D4C0F1FF
:104A3000FF3B07F10109A9EB0700019042E0012FBC
:104A400000DA01270021112F01DD112000E0384696
:104A5000CDE9000104A90CA8FFF7B4FCDDE90D01C4
:104A60000C9A00914FF0000BB946109221070FD419
:104A7000009A4A4503DA914601E0A9F10109B9F12A
:104A8000010F05DD109AA9F10101515C3029F4D024
:104A9000B84202DA10F1040F03DA0121CDE9011066
:104AA00010E0002803DC8344A9EB000102E0411C74
:104AB000494500DD8946A0EB0B00401C01904FF0FA
:104AC00000400290200705D40198484502DB4FF0D2
:104AD000FF30019000208DF84B0002980DF14B073C
:104AE000B0F1004F25D002200C902B200D900298A1
:104AF00000280CDA404202902D200D9007E00A2198
:104B00000298FBF761FC3031029007F8011D0C9907
:104B1000481E0C900029F2DC02980028EFD1791E83
:104B20000D980870307800F0200040F0450007F83C
:104B3000020D11A8C01BC01D02901398007800B18F
:104B4000012000EB0901019801EBE071029801449A
:104B50000398401A401E0390E00306D453462146B2
:104B6000179A039800F05CF805441398007818B180
:104B70005246179990476D1CE00323D553462146B2
:104B8000179A039800F04CF805441BE0BBF1000FA6
:104B900007DB0098584504DD1098179910F80B00B2
:104BA00001E0179930205246904701980BF1010B14
:104BB000401E05F10105019004D12E20524617999F
:104BC00090476D1CB9F10001A9F10109DEDC05E097
:104BD00017F8010B5246179990476D1C0299481E11
:104BE00002900029F4DC53462146179A03989EE66A
:104BF0002D0000002B000000200000002DE9F041F6
:104C0000044600251E461746880404D405E03946AC
:104C10002020B0476D1C641EF9D52846BDE8F08100
:104C20002DE9F041044600251E469046C80301D5F3
:104C3000302700E02027880404D505E041463846A7
:104C4000B0476D1C641EF9D52846BDE8F0810A689E
:104C5000531C0B601070704710B56FF00400FFF725
:104C600001F80A4800680A49B0FBF1F009490870E8
:104C70000846007800EB4001C1EBC0104FF6FF7111
:104C800001EAC0000449088010BD00008C0000202B
:104C900000127A00A0000020A20000200146114A64
:104CA00012884A434FF0E0235A6100229A611A4663
:104CB000126942F001021A6100BF4FF0E022106950
:104CC00000F001021AB100F48032002AF5D04FF052
:104CD000E022126922F001024FF0E0231A61002263
:104CE0009A617047A20000200146114A12784A4397
:104CF0004FF0E0235A6100229A611A46126942F08D
:104D000001021A6100BF4FF0E022106900F00102B9
:104D10001AB100F48032002AF5D04FF0E022126977
:104D200022F001024FF0E0231A6100229A617047DD
:104D3000A000002000BF054A128802F04002002AAD
:104D4000F9D0C2B2014B1B1D1A80704700380140D8
:104D500010B5002821D0114B0022001F196803E074
:104D6000814203D80A4649680029F9D152B1136833
:104D7000841A9C4204D1006818441060104602E076
:104D8000506000E0186039B102680B1A934203D1F9
:104D90000B681A4402604968416010BD080C00208D
:104DA00010B500200F4908600F48006820F0F0009F
:104DB0000D4908600846006840F030000860002097
:104DC0000A49C1F8A4010220FFF78EFF012005491E
:104DD00008600220FFF788FF00200449C1F8A00105
:104DE00010BD0000A0812142040C0140008021423E
:104DF0000120034908600349C1F8A401704700007D
:104E0000A08121420080214210B500200F49086096
:104E10000F48006820F0F0000D490860084600685F
:104E200040F03000086001200A49C1F8A4010220C6
:104E3000FFF75AFF0120054908600220FFF754FFE1
:104E400000200449C1F8A00110BD0000A08121424A
:104E5000040C01400080214270B50546002417482B
:104E6000006820F0F000154908600846006840F02E
:104E700080000860002616E000201149086002202A
:104E8000FFF732FF01200F49C1F8A0016006040EB0
:104E90000B487C38006808B1601CC4B20120FFF7E1
:104EA00023FF701CC6B2082EE6DB15B9FFF7ACFF76
:104EB00001E0FFF775FF204670BD0000040C0140C3
:104EC000A08121420080214270B504461548006847
:104ED00020F0F000134908600846006840F03000F8
:104EE0000860002010490860002517E0E0090E491D
:104EF000091D08606006040E0220FFF7F5FE012080
:104F00000A49C1F8A0010220FFF7EEFE0020064981
:104F100008600220FFF7E8FE681CC5B2082DE5DB3B
:104F200070BD0000040C0140A0812142008021429C
:104F300010B50F48006820F0F0000D4908600846E1
:104F4000006840F03000086001200A4908600A4902
:104F5000C1F8A0010420FFF7C7FE00200549086042
:104F60000420FFF7C1FE00200349C1F8A00110BDD5
:104F7000040C0140A48121420080214210B50F4859
:104F8000006820F0F0000D4908600846006840F015
:104F90003000086000200A4908600A49C1F8A401ED
:104FA0000420FFF7A1FE0120054908600549C1F86A
:104FB000A4010420FFF798FE10BD0000040C01407E
:104FC000A08121420080214210B5002414480068CD
:104FD00020F0F000124908600846006840F08000A8
:104FE000086001200F490860FFF77EFE01200E498E
:104FF000C1F8A001FFF778FE07E0601CC4B2FA2CEC
:1050000003DDFFF7BBFF012010BD064880380068B4
:105010000028F2D10349091F086000BFF4E700002F
:10502000040C0140A4812142008021428AB04FF04B
:10503000000A4FF4967B0020099000254FF4A060F1
:10504000FCF7F8FFFFF708FE4FF4165001F04AF89E
:105050004FF4E130FFF702F94FF41650FEF7B8FFB6
:10506000FCF79CFBFDF712F8472140F2E730FEF712
:1050700093FEFBF727FEFBF7C9FF4FF4FA70FFF72B
:105080000DFE03E04FF4FA70FFF708FEFDF780FE17
:105090000028F7D10120FE49086001F01EF8FCF756
:1050A00067FF00F08CFCFCF757FBFA4E00274FF42B
:1050B000FA70F9490860002436E000BFF74800683C
:1050C0000128FBD007A9072000F039FC9DF81C003F
:1050D0008007800B9DF81D1040EA01209DF81E10EE
:1050E0000843EF4941F824009DF81F008007800B1A
:1050F0009DF8201040EA01209DF821100843E9495D
:1051000041F82400E64850F82400B04202D2E448B6
:1051100050F82460E24850F82400B84202D9E04830
:1051200050F82470601C84B2DB4800688442C4DB01
:10513000DB4850F82480DC48DC49DD4ADD4BCDE912
:1051400000210290D64AD4480168D64800F094FC69
:10515000D9A0FEF77DFF49E3D9480078D9490978FD
:10516000CDE90010D8480378D8480278D8A1DE48A5
:10517000FFF700F90223DC4A00210846FDF722F878
:10518000DA4800780090DA480378DA480278DAA141
:10519000DE48FFF7EFF80123DC4A07210020FDF786
:1051A00011F8DB480378DB480278DBA1DE48FFF723
:1051B000E1F80123DC4A05210020FDF703F8DB4874
:1051C0000378DB480278DBA1D748FFF7D3F8012347
:1051D000D54A05214620FCF7F5FFDA480378DA487E
:1051E0000278DAA1D048FFF7C5F80123CE4A06219C
:1051F0000020FCF7E7FFD9480378D9480278D9A105
:10520000C948FFF7B7F80123C74A06214620FCF733
:10521000D9FFB7480078BE49097888420FD1B54810
:105220000078BC490978884209D1B0480078D14952
:105230000978884203D1A5480078002841DCAC48B1
:105240000078BA49097888420FD1AA480078B8494D
:105250000978884209D1A5480078C7490978884269
:1052600003D19948007800282BDCA1480078B54983
:10527000097888420FD19F480078B349097888425D
:1052800009D19A480078BD490978884203D18D48F0
:105290000078002815DC96480078B04909788842E3
:1052A00056D194480078AE490978884250D18F4849
:1052B0000078B349097888424AD1814800780028AB
:1052C00046DDB0A0FEF7C4FE00207149086046200C
:1052D000FFF7E4FC0120AE49C1F8B4011E20FFF73E
:1052E000DDFC00206A4908604620FFF7D7FC01205A
:1052F000A749C1F8B4011E20FFF7D0FC0020644983
:1053000008604620FFF7CAFC0120A149C1F8B4019A
:105310009620FFF7C3FC00209D49C1F8B401462048
:10532000FFF7BCFC01209A49C1F8B4011E20FFF729
:10533000B5FC00209649C1F8B4014620FFF7AEFC49
:1053400001209349C1F8B40140F22620FFF7A6FCE2
:1053500020219048FCF716FA20B98F480078401CAD
:105360008D4908708C480078022802DB00208A49A9
:1053700008708948027889A15B48FEF7FBFF01238A
:10538000594A02210020FCF71DFF10218148FCF73B
:10539000F9F9C0B9681CC5B2012D03D100204B49F1
:1053A000087010E0022D03D10020474908700AE080
:1053B000032D03D100204349087004E0042D02D1DD
:1053C00000203F490870052D00DB002501217148B0
:1053D000FCF7D8F930B901207249087000207249F1
:1053E00008701AE070480078022804DA6E480078E5
:1053F000401C6D4908706420FFF750FC012165488E
:10540000FCF7C0F9012808D167480078022804DBBE
:10541000002064490870644908706248027863A1FA
:105420006448FEF7A7FF0123624A02215520FCF7DA
:10543000C9FE5C48007838B9012015490860002091
:105440005349C1F8B80106E0002011490860012065
:105450004F49C1F8B80100240E4E00276424B8E07B
:105460000F4850F82410A4F164000D4A42F82010AF
:105470000C4850F82410A4F164000A4A42F82010A5
:10548000074850F82400B04200D295E097E00000B1
:10549000B4012242FFFF03003C0000202C81214286
:1054A00084140020B40C00204C0000204800002090
:1054B000440000204000002041463A33300D0A00ED
:1054C0001E0000201D0000201C0000201B000020EA
:1054D000593A253032643A253032643A2530326404
:1054E0003A253032640000006E0C002008000020D5
:1054F000090000200A000020743A253032643A2561
:105500003032643A25303264000000008C0C0020F8
:10551000100000201100002074313A253032643A26
:105520002530326400000000960C0020130000209B
:105530001400002074323A253032643A2530326447
:1055400000000000160000201700002074333A25E8
:105550003032643A25303264000000001900002027
:105560001A00002074343A253032643A253032640F
:10557000000000000F000020120000201500002095
:105580001800002041373A30303030360D0A000024
:1055900000002242000C014031000020483A2564FE
:1055A00020000000210000208A000020443A2564E9
:1055B00020000000640C00208D4850F824608C48C6
:1055C00050F82400B84202D9894850F82470601C71
:1055D00084B2B4F5FA7FFFF643AF4FF4C87496E097
:1055E000601E834951F8208000BF8248006801286E
:1055F000FBD007A9072000F0A2F99DF81C00800746
:10560000800B9DF81D1040EA01209DF81E100843F4
:10561000774941F824009DF81F008007800B9DF812
:10562000201040EA01209DF821100843724941F8FA
:1056300024006F4850F82400404520D96C4951F8A7
:105640002410A1EB0800FAF765FE0690B81BFAF7E4
:1056500061FE014605900698FAF715FE0690674927
:105660000698FAF7DEFD06900698FAF758FEA9EBC1
:105670000009B9F1000F21DA4FF000091EE05C4982
:1056800051F82410A8EB0100FAF744FE0690B81B6D
:10569000FAF740FE014605900698FAF7F4FD0690E9
:1056A00056490698FAF7BDFD06900698FAF737FEB8
:1056B0008144B9F1FF0F01DD4FF0FF095048007838
:1056C000012814D14F480068782806DA4D48006850
:1056D000FAF717FE4C49086002E000204A490860CA
:1056E0004A480068FAF70DFE4949086004E00020C6
:1056F00045490860464908600998401CC0B20990B5
:1057000009980A2801DD00200990601C84B2B4F5D4
:10571000FA7FFFF665AF3A483A493E4A3B4BCDE93E
:1057200000210290324A3C480168334800F0A4F955
:10573000002135480068FAF733FE02D100203449D1
:105740000860002132480068FAF72AFE02D80020DB
:105750002F49086000212C480068FAF72BFE27D259
:105760002B480068FAF708FECDE9040126480068D6
:10577000FAF702FECDE90201DDE90401CDE90001FD
:1057800026A12B48DDE90223FEF7F4FD0123284A78
:1057900003210020FCF716FD1B480068FAF7D8FD2E
:1057A000244908701A480068FAF7D2FD22490870A7
:1057B0000BF101001FFA80FBBBF10A0F0CDB4FF06D
:1057C000000BFEF7B1F8FBF7EBFBC820FFF766FA1A
:1057D000FEF7E2F8FBF7E4FB0020FBF7EFFB824665
:1057E000BAF1000F02D05046FDF7EAFCB4E4000025
:1057F000841400202C812142B40C002000007F433F
:105800004C000020480000205000002040000020F4
:1058100054000020440000203C00002078696E3ACB
:10582000252E30663B252E306620202020000000EB
:105830008C0C00203500002036000020F0B50B3025
:10584000154D20F007010024144A0FE003688B4235
:105850000BD38B4205D95E1A43184768C3E900672A
:1058600000E04368136002C004E0021D10680028D5
:10587000ECD12046002802D1286808B10020F0BDF4
:10588000064A07481060074A121A22F00702C0E9C8
:10589000002401202860D7E70C0C0020080C002011
:1058A0007C3500207837002070B50446FFF740FBB8
:1058B000AE20FFF709FBFFF787FB00B119E0204698
:1058C000FFF702FBFFF780FB00B112E0FFF730FBB0
:1058D000AF20FFF7F9FAFFF777FB00B109E00020EE
:1058E000FFF7BAFA0546FFF78FFAFFF747FB28469E
:1058F00070BDFFF743FB0020FAE770B505460C4684
:10590000FFF716FBAE20FFF7DFFAFFF75DFB00B1F4
:1059100011E02846FFF7D8FAFFF756FB00B10AE07E
:105920002046FFF7D1FAFFF74FFB00B103E0FFF786
:1059300025FB012070BDFFF721FB0020FAE770B5C1
:1059400005460C460020FFF7AFFF0120FFF7ACFF34
:10595000FFF7EEFAAE20FFF7B7FAFFF735FB00B11D
:105960002AE02846FFF7B0FAFFF72EFB00B123E04C
:10597000FFF7DEFAAF20FFF7A7FAFFF725FB00B12C
:105980001AE00120FFF768FA20700120FFF764FA9F
:1059900060700120FFF760FAA0700120FFF75CFA49
:1059A000E0700120FFF758FA20710020FFF754FA49
:1059B0006071FFF7E3FA00BFFFF7E0FA70BD10B5C2
:1059C000FFF716FA00F02DF8C0210220FFF795FF2F
:1059D00000210320FFF791FF00210420FFF78DFF36
:1059E00000210520FFF789FF00210620FFF785FF32
:1059F0000F210820FFF781FF03210920FFF77DFF1A
:105A000027210A20FFF779FF24210C20FFF775FFDB
:105A100024210D20FFF771FF7F211020FFF76DFF7C
:105A200010BD10B540210920FFF767FF4021092074
:105A3000FFF763FF10BD2DE9F84705460C461646F3
:105A40001F46DDE90A9ADDF824803B4632462146AE
:105A50002846CDF8008000F08FFA4B4632462146AA
:105A6000284600F0C6FA2068504501DA206800E0B8
:105A700050462060BDE8F8872DE9FF4FC6B0884644
:105A8000994600204590002406E0469850F82410DE
:105A9000459808444590641C4445F6DB4598B0FBA6
:105AA000F8F04590002408E0469850F824104598F6
:105AB000081AFE4941F82400641C4445F4DB002424
:105AC00017E0FA4850F824100246601C52F82000F3
:105AD0000144A01C52F820000144E01C52F82000B0
